{"abi":[{"type":"constructor","inputs":[{"name":"_sp1Verifier","type":"address","internalType":"address"},{"name":"_programVKey","type":"bytes32","internalType":"bytes32"},{"name":"_useActualSP1Verification","type":"bool","internalType":"bool"}],"stateMutability":"nonpayable"},{"type":"function","name":"batches","inputs":[{"name":"","type":"uint256","internalType":"uint256"}],"outputs":[{"name":"stateRoot","type":"bytes32","internalType":"bytes32"},{"name":"ordersRoot","type":"bytes32","internalType":"bytes32"}],"stateMutability":"view"},{"type":"function","name":"getBatch","inputs":[{"name":"batchId","type":"uint256","internalType":"uint256"}],"outputs":[{"name":"","type":"tuple","internalType":"struct IProofVerifier.Batch","components":[{"name":"stateRoot","type":"bytes32","internalType":"bytes32"},{"name":"ordersRoot","type":"bytes32","internalType":"bytes32"}]}],"stateMutability":"view"},{"type":"function","name":"getLatestBatchId","inputs":[],"outputs":[{"name":"","type":"uint256","internalType":"uint256"}],"stateMutability":"view"},{"type":"function","name":"getOrdersRoot","inputs":[{"name":"batchId","type":"uint256","internalType":"uint256"}],"outputs":[{"name":"","type":"bytes32","internalType":"bytes32"}],"stateMutability":"view"},{"type":"function","name":"getStateRoot","inputs":[{"name":"batchId","type":"uint256","internalType":"uint256"}],"outputs":[{"name":"","type":"bytes32","internalType":"bytes32"}],"stateMutability":"view"},{"type":"function","name":"latestBatchId","inputs":[],"outputs":[{"name":"","type":"uint256","internalType":"uint256"}],"stateMutability":"view"},{"type":"function","name":"owner","inputs":[],"outputs":[{"name":"","type":"address","internalType":"address"}],"stateMutability":"view"},{"type":"function","name":"programVKey","inputs":[],"outputs":[{"name":"","type":"bytes32","internalType":"bytes32"}],"stateMutability":"view"},{"type":"function","name":"setUseActualSP1Verification","inputs":[{"name":"_useActualSP1Verification","type":"bool","internalType":"bool"}],"outputs":[],"stateMutability":"nonpayable"},{"type":"function","name":"sp1Verifier","inputs":[],"outputs":[{"name":"","type":"address","internalType":"contract ISP1Verifier"}],"stateMutability":"view"},{"type":"function","name":"submitProof","inputs":[{"name":"batchId","type":"uint256","internalType":"uint256"},{"name":"prevBatchId","type":"uint256","internalType":"uint256"},{"name":"prevStateRoot","type":"bytes32","internalType":"bytes32"},{"name":"prevOrdersRoot","type":"bytes32","internalType":"bytes32"},{"name":"newStateRoot","type":"bytes32","internalType":"bytes32"},{"name":"newOrdersRoot","type":"bytes32","internalType":"bytes32"},{"name":"proof","type":"bytes","internalType":"bytes"}],"outputs":[],"stateMutability":"nonpayable"},{"type":"function","name":"useActualSP1Verification","inputs":[],"outputs":[{"name":"","type":"bool","internalType":"bool"}],"stateMutability":"view"},{"type":"event","name":"ProofSubmitted","inputs":[{"name":"batchId","type":"uint256","indexed":true,"internalType":"uint256"},{"name":"newStateRoot","type":"bytes32","indexed":false,"internalType":"bytes32"},{"name":"newOrdersRoot","type":"bytes32","indexed":false,"internalType":"bytes32"}],"anonymous":false},{"type":"error","name":"BatchAlreadyExists","inputs":[]},{"type":"error","name":"InvalidBatchId","inputs":[]},{"type":"error","name":"InvalidProof","inputs":[]}],"bytecode":{"object":"0x60c060405234801561000f575f5ffd5b506040516108a73803806108a783398101604081905261002e916100da565b600280546001600160a01b039490941660805260a0929092521515600160a01b0260ff60a01b1933166001600160a81b031990931692909217919091179055604080518082019091525f80825260208083018281528280529082905291517fad3228b676f7d3cd4284a5443f17f1962b36e491b30a40b2405849e597ba5fb55590517fad3228b676f7d3cd4284a5443f17f1962b36e491b30a40b2405849e597ba5fb655600155610129565b5f5f5f606084860312156100ec575f5ffd5b83516001600160a01b0381168114610102575f5ffd5b602085015160408601519194509250801515811461011e575f5ffd5b809150509250925092565b60805160a0516107516101565f395f818160ba015261050301525f818160fd01526104ce01526107515ff3fe608060405234801561000f575f5ffd5b50600436106100b1575f3560e01c80639a4b9a841161006e5780639a4b9a84146101c2578063aea32261146101e4578063b32c4d8d146101ec578063c34f7c3814610227578063c38019381461023a578063c669464914610259575f5ffd5b80631ddb5d29146100b55780634d4e7019146100ef57806352a07fa3146100f85780635ac442821461013757806372b0760d1461019a5780638da5cb5b146101af575b5f5ffd5b6100dc7f000000000000000000000000000000000000000000000000000000000000000081565b6040519081526020015b60405180910390f35b6100dc60015481565b61011f7f000000000000000000000000000000000000000000000000000000000000000081565b6040516001600160a01b0390911681526020016100e6565b61017f6101453660046105aa565b604080518082019091525f8082526020820152505f9081526020818152604091829020825180840190935280548352600101549082015290565b604080518251815260209283015192810192909252016100e6565b6101ad6101a83660046105c1565b61027d565b005b60025461011f906001600160a01b031681565b6100dc6101d03660046105aa565b5f9081526020819052604090206001015490565b6001546100dc565b6102126101fa3660046105aa565b5f602081905290815260409020805460019091015482565b604080519283526020830191909152016100e6565b6101ad6102353660046105e7565b6102eb565b6100dc6102483660046105aa565b5f9081526020819052604090205490565b60025461026d90600160a01b900460ff1681565b60405190151581526020016100e6565b6002546001600160a01b031633146102cd5760405162461bcd60e51b815260206004820152600e60248201526d139bdd08185d5d1a1bdc9a5e995960921b60448201526064015b60405180910390fd5b60028054911515600160a01b0260ff60a01b19909216919091179055565b6002546001600160a01b031633146103365760405162461bcd60e51b815260206004820152600e60248201526d139bdd08185d5d1a1bdc9a5e995960921b60448201526064016102c4565b600180546103439161068b565b881461036257604051633b98df6560e01b815260040160405180910390fd5b5f878152602081815260409182902082518084019093528054808452600190910154918301919091528714158061039d575085816020015114155b156103bb57604051633b98df6560e01b815260040160405180910390fd5b600254600160a01b900460ff16156103e1576103dc83838b8a8a8a8a610460565b6103f0565b6103f083838b8a8a8a8a610580565b60408051808201825286815260208082018781525f8d81528083528490209251835551600192830155908b905581518781529081018690528a917f31edea6e49372f472f35d59231a2cfb54d719ca512e3fb815a0e3f2c6f6f26b1910160405180910390a2505050505050505050565b6040805160a080820183528782526020808301888152838501888152606080860189815260808088018a815289519687018f90529451868a0152925191850191909152519083015251818301528351808203909201825260c081019384905263020a49e360e51b90935290917f00000000000000000000000000000000000000000000000000000000000000006001600160a01b0316906341493c6090610531907f00000000000000000000000000000000000000000000000000000000000000009085908e908e9060c4016106b0565b5f6040518083038186803b158015610547575f5ffd5b505afa925050508015610558575060015b610575576040516309bde33960e01b815260040160405180910390fd5b505050505050505050565b5f8690036105a1576040516309bde33960e01b815260040160405180910390fd5b50505050505050565b5f602082840312156105ba575f5ffd5b5035919050565b5f602082840312156105d1575f5ffd5b813580151581146105e0575f5ffd5b9392505050565b5f5f5f5f5f5f5f5f60e0898b0312156105fe575f5ffd5b883597506020890135965060408901359550606089013594506080890135935060a0890135925060c089013567ffffffffffffffff81111561063e575f5ffd5b8901601f81018b1361064e575f5ffd5b803567ffffffffffffffff811115610664575f5ffd5b8b6020828401011115610675575f5ffd5b989b979a50959850939692959194602001935050565b808201808211156106aa57634e487b7160e01b5f52601160045260245ffd5b92915050565b848152606060208201525f84518060608401528060208701608085015e5f60808285010152601f19601f820116830190506080838203016040840152836080820152838560a08301375f60a0828601810191909152601f909401601f1916019092019594505050505056fea2646970667358221220e308599242611576797f9946c5dbabe2e450f2c28931e410357fbaa47ffada2264736f6c634300081c0033","linkReferences":{}},"methodIdentifiers":{"batches(uint256)":"b32c4d8d","getBatch(uint256)":"5ac44282","getLatestBatchId()":"aea32261","getOrdersRoot(uint256)":"9a4b9a84","getStateRoot(uint256)":"c3801938","latestBatchId()":"4d4e7019","owner()":"8da5cb5b","programVKey()":"1ddb5d29","setUseActualSP1Verification(bool)":"72b0760d","sp1Verifier()":"52a07fa3","submitProof(uint256,uint256,bytes32,bytes32,bytes32,bytes32,bytes)":"c34f7c38","useActualSP1Verification()":"c6694649"},"id":29}