{"abi":[{"type":"constructor","inputs":[{"name":"_proofVerifier","type":"address","internalType":"address"}],"stateMutability":"nonpayable"},{"type":"function","name":"addSupportedToken","inputs":[{"name":"tokenId","type":"uint256","internalType":"uint256"},{"name":"tokenAddress","type":"address","internalType":"address"}],"outputs":[],"stateMutability":"nonpayable"},{"type":"function","name":"batchClaim","inputs":[{"name":"batchId","type":"uint256","internalType":"uint256"},{"name":"claims","type":"tuple[]","internalType":"struct IVaporBridge.ClaimData[]","components":[{"name":"orderId","type":"uint256","internalType":"uint256"},{"name":"destinationAddress","type":"address","internalType":"address"},{"name":"tokenId","type":"uint256","internalType":"uint256"},{"name":"amount","type":"uint256","internalType":"uint256"},{"name":"merkleProof","type":"bytes32[]","internalType":"bytes32[]"}]}],"outputs":[],"stateMutability":"nonpayable"},{"type":"function","name":"claim","inputs":[{"name":"batchId","type":"uint256","internalType":"uint256"},{"name":"orderId","type":"uint256","internalType":"uint256"},{"name":"to","type":"address","internalType":"address"},{"name":"tokenId","type":"uint256","internalType":"uint256"},{"name":"amount","type":"uint256","internalType":"uint256"},{"name":"merkleProof","type":"bytes32[]","internalType":"bytes32[]"}],"outputs":[],"stateMutability":"nonpayable"},{"type":"function","name":"claimed","inputs":[{"name":"","type":"uint256","internalType":"uint256"}],"outputs":[{"name":"","type":"bool","internalType":"bool"}],"stateMutability":"view"},{"type":"function","name":"deposit","inputs":[{"name":"tokenId","type":"uint256","internalType":"uint256"},{"name":"amount","type":"uint256","internalType":"uint256"},{"name":"bankingHash","type":"bytes32","internalType":"bytes32"}],"outputs":[],"stateMutability":"nonpayable"},{"type":"function","name":"emergencyWithdraw","inputs":[{"name":"tokenId","type":"uint256","internalType":"uint256"},{"name":"to","type":"address","internalType":"address"},{"name":"amount","type":"uint256","internalType":"uint256"}],"outputs":[],"stateMutability":"nonpayable"},{"type":"function","name":"getSupportedToken","inputs":[{"name":"tokenId","type":"uint256","internalType":"uint256"}],"outputs":[{"name":"","type":"address","internalType":"address"}],"stateMutability":"view"},{"type":"function","name":"getTokenBalance","inputs":[{"name":"tokenId","type":"uint256","internalType":"uint256"}],"outputs":[{"name":"","type":"uint256","internalType":"uint256"}],"stateMutability":"view"},{"type":"function","name":"isClaimed","inputs":[{"name":"orderId","type":"uint256","internalType":"uint256"}],"outputs":[{"name":"","type":"bool","internalType":"bool"}],"stateMutability":"view"},{"type":"function","name":"isTokenSupported","inputs":[{"name":"tokenId","type":"uint256","internalType":"uint256"}],"outputs":[{"name":"","type":"bool","internalType":"bool"}],"stateMutability":"view"},{"type":"function","name":"owner","inputs":[],"outputs":[{"name":"","type":"address","internalType":"address"}],"stateMutability":"view"},{"type":"function","name":"proofVerifier","inputs":[],"outputs":[{"name":"","type":"address","internalType":"contract IProofVerifier"}],"stateMutability":"view"},{"type":"function","name":"removeSupportedToken","inputs":[{"name":"tokenId","type":"uint256","internalType":"uint256"}],"outputs":[],"stateMutability":"nonpayable"},{"type":"function","name":"supportedTokens","inputs":[{"name":"","type":"uint256","internalType":"uint256"}],"outputs":[{"name":"","type":"address","internalType":"address"}],"stateMutability":"view"},{"type":"event","name":"BatchClaimed","inputs":[{"name":"batchId","type":"uint256","indexed":true,"internalType":"uint256"},{"name":"filler","type":"address","indexed":true,"internalType":"address"},{"name":"totalClaims","type":"uint256","indexed":false,"internalType":"uint256"},{"name":"totalAmount","type":"uint256","indexed":false,"internalType":"uint256"}],"anonymous":false},{"type":"event","name":"Claimed","inputs":[{"name":"batchId","type":"uint256","indexed":true,"internalType":"uint256"},{"name":"orderId","type":"uint256","indexed":true,"internalType":"uint256"},{"name":"to","type":"address","indexed":true,"internalType":"address"},{"name":"tokenId","type":"uint256","indexed":false,"internalType":"uint256"},{"name":"amount","type":"uint256","indexed":false,"internalType":"uint256"}],"anonymous":false},{"type":"event","name":"Deposited","inputs":[{"name":"from","type":"address","indexed":true,"internalType":"address"},{"name":"tokenId","type":"uint256","indexed":false,"internalType":"uint256"},{"name":"amount","type":"uint256","indexed":false,"internalType":"uint256"},{"name":"bankingHash","type":"bytes32","indexed":true,"internalType":"bytes32"}],"anonymous":false},{"type":"event","name":"TokenAdded","inputs":[{"name":"tokenId","type":"uint256","indexed":true,"internalType":"uint256"},{"name":"tokenAddress","type":"address","indexed":true,"internalType":"address"},{"name":"symbol","type":"string","indexed":false,"internalType":"string"}],"anonymous":false},{"type":"event","name":"TokenRemoved","inputs":[{"name":"tokenId","type":"uint256","indexed":true,"internalType":"uint256"},{"name":"tokenAddress","type":"address","indexed":true,"internalType":"address"}],"anonymous":false},{"type":"error","name":"BatchNotVerified","inputs":[]},{"type":"error","name":"EmptyClaimsArray","inputs":[]},{"type":"error","name":"InsufficientBalance","inputs":[]},{"type":"error","name":"InvalidMerkleProof","inputs":[]},{"type":"error","name":"InvalidTokenAddress","inputs":[]},{"type":"error","name":"MismatchedArrayLengths","inputs":[]},{"type":"error","name":"OrderAlreadyClaimed","inputs":[]},{"type":"error","name":"TokenAlreadyExists","inputs":[]},{"type":"error","name":"TokenNotSupported","inputs":[]}],"bytecode":{"object":"0x60a060405234801561000f575f5ffd5b5060405161156d38038061156d83398101604081905261002e91610051565b6001600160a01b0316608052600280546001600160a01b0319163317905561007e565b5f60208284031215610061575f5ffd5b81516001600160a01b0381168114610077575f5ffd5b9392505050565b6080516114c96100a45f395f8181610168015281816104880152610a1901526114c95ff3fe608060405234801561000f575f5ffd5b50600436106100e5575f3560e01c80639105d74811610088578063b2b8d43411610063578063b2b8d4341461021e578063c625562614610231578063dbe7e3bd14610259578063ea629d911461027b575f5ffd5b80639105d748146101c85780639e34070f146101e95780639f243c151461020b575f5ffd5b80634702d81d116100c35780634702d81d146101505780637fa417b31461016357806386bfc719146101a25780638da5cb5b146101b5575f5ffd5b8063045434c4146100e95780633278c044146100fe578063345b69e514610111575b5f5ffd5b6100fc6100f7366004610fda565b6102a3565b005b6100fc61010c36600461104b565b61044f565b61013b61011f366004611093565b5f908152600160205260409020546001600160a01b0316151590565b60405190151581526020015b60405180910390f35b6100fc61015e3660046110c5565b61085b565b61018a7f000000000000000000000000000000000000000000000000000000000000000081565b6040516001600160a01b039091168152602001610147565b6100fc6101b03660046110ef565b6109d2565b60025461018a906001600160a01b031681565b6101db6101d6366004611093565b610d00565b604051908152602001610147565b61013b6101f7366004611093565b5f9081526020819052604090205460ff1690565b6100fc610219366004611164565b610d91565b6100fc61022c366004611093565b610e86565b61018a61023f366004611093565b60016020525f90815260409020546001600160a01b031681565b61013b610267366004611093565b5f6020819052908152604090205460ff1681565b61018a610289366004611093565b5f908152600160205260409020546001600160a01b031690565b5f82116102f75760405162461bcd60e51b815260206004820152601d60248201527f416d6f756e74206d7573742062652067726561746572207468616e203000000060448201526064015b60405180910390fd5b806103445760405162461bcd60e51b815260206004820152601c60248201527f42616e6b696e6720686173682063616e6e6f7420626520656d7074790000000060448201526064016102ee565b5f838152600160205260409020546001600160a01b03168061037957604051633dd1b30560e01b815260040160405180910390fd5b6040516323b872dd60e01b81523360048201523060248201526044810184905281906001600160a01b038216906323b872dd906064016020604051808303815f875af11580156103cb573d5f5f3e3d5ffd5b505050506040513d601f19601f820116820180604052508101906103ef9190611197565b61040b5760405162461bcd60e51b81526004016102ee906111b6565b6040805186815260208101869052849133917f476c6351e303331f1078ee510043d1c4cd749af1a8107dadd6d5fd3704975876910160405180910390a35050505050565b5f81900361047057604051631c9cb90b60e21b815260040160405180910390fd5b604051632d62214160e11b8152600481018490525f907f00000000000000000000000000000000000000000000000000000000000000006001600160a01b031690635ac44282906024016040805180830381865afa1580156104d4573d5f5f3e3d5ffd5b505050506040513d601f19601f820116820180604052508101906104f8919061122a565b602081015190915061051d57604051633da6f21960e11b815260040160405180910390fd5b5f80805b84811015610815573686868381811061053c5761053c611279565b905060200281019061054e919061128d565b80355f9081526020819052604090205490915060ff161561056f575061080d565b6040808201355f908152600160205220546001600160a01b03168061059557505061080d565b5f8983356001836105ac60408801602089016112ab565b876040013588606001356040516020016105cc97969594939291906112c4565b60408051601f19818403018152919052805160209091012090506106326105f66080850185611300565b808060200260200160405190810160405280939291908181526020018383602002808284375f92019190915250505060208a0151849150610f37565b61063e5750505061080d565b6040516370a0823160e01b815230600482015282906060850135906001600160a01b038316906370a0823190602401602060405180830381865afa158015610688573d5f5f3e3d5ffd5b505050506040513d601f19601f820116820180604052508101906106ac9190611346565b10156106bb575050505061080d565b83355f9081526020818152604091829020805460ff191660011790556001600160a01b0383169163a9059cbb916106f69188019088016112ab565b6040516001600160e01b031960e084901b1681526001600160a01b039091166004820152606087013560248201526044016020604051808303815f875af1158015610743573d5f5f3e3d5ffd5b505050506040513d601f19601f820116820180604052508101906107679190611197565b6107835760405162461bcd60e51b81526004016102ee906111b6565b61079360408501602086016112ab565b6001600160a01b0316845f01358c7fa189bd50040d146e005d64d0eb3ae648a95712a6c5633c1de9020a0c3f3f9d11876040013588606001356040516107e3929190918252602082015260400190565b60405180910390a46107f9606085013588611371565b9650856108058161138a565b965050505050505b600101610521565b506040805182815260208101849052339188917fad1475a2c20fa2d0866a5ce805a7bffe9fc0efd701a3467f8d9298d4f01fd3b6910160405180910390a3505050505050565b6002546001600160a01b031633146108855760405162461bcd60e51b81526004016102ee906113a2565b6001600160a01b0381166108ac57604051630f58058360e11b815260040160405180910390fd5b5f828152600160205260409020546001600160a01b0316156108e15760405163c991cbb160e01b815260040160405180910390fd5b5f82815260016020908152604080832080546001600160a01b0319166001600160a01b0386169081179091558151808301835260078152662aa725a727aba760c91b9381019390935281516395d89b4160e01b81529151929390926395d89b419260048082019392918290030181865afa92505050801561098357506040513d5f823e601f3d908101601f1916820160405261098091908101906113ca565b60015b1561098b5790505b816001600160a01b0316837ff44669d0bb138c4a68242ff532894ffef642d66c50c06f585e3ef61302971e4a836040516109c5919061145e565b60405180910390a3505050565b5f8681526020819052604090205460ff1615610a0157604051630bfb669d60e31b815260040160405180910390fd5b604051632d62214160e11b8152600481018890525f907f00000000000000000000000000000000000000000000000000000000000000006001600160a01b031690635ac44282906024016040805180830381865afa158015610a65573d5f5f3e3d5ffd5b505050506040513d601f19601f82011682018060405250810190610a89919061122a565b5f868152600160205260409020549091506001600160a01b031680610ac157604051633dd1b30560e01b815260040160405180910390fd5b6020820151610ae357604051633da6f21960e11b815260040160405180910390fd5b5f898960015f8b8b8b604051602001610b0297969594939291906112c4565b604051602081830303815290604052805190602001209050610b5b8585808060200260200160405190810160405280939291908181526020018383602002808284375f9201919091525050506020860151849150610f37565b610b785760405163582f497d60e11b815260040160405180910390fd5b6040516370a0823160e01b8152306004820152829087906001600160a01b038316906370a0823190602401602060405180830381865afa158015610bbe573d5f5f3e3d5ffd5b505050506040513d601f19601f82011682018060405250810190610be29190611346565b1015610c0157604051631e9acf1760e31b815260040160405180910390fd5b5f8a81526020819052604090819020805460ff191660011790555163a9059cbb60e01b81526001600160a01b038a811660048301526024820189905282169063a9059cbb906044016020604051808303815f875af1158015610c65573d5f5f3e3d5ffd5b505050506040513d601f19601f82011682018060405250810190610c899190611197565b610ca55760405162461bcd60e51b81526004016102ee906111b6565b886001600160a01b03168a8c7fa189bd50040d146e005d64d0eb3ae648a95712a6c5633c1de9020a0c3f3f9d118b8b604051610ceb929190918252602082015260400190565b60405180910390a45050505050505050505050565b5f818152600160205260408120546001600160a01b031680610d2457505f92915050565b6040516370a0823160e01b81523060048201526001600160a01b038216906370a0823190602401602060405180830381865afa158015610d66573d5f5f3e3d5ffd5b505050506040513d601f19601f82011682018060405250810190610d8a9190611346565b9392505050565b6002546001600160a01b03163314610dbb5760405162461bcd60e51b81526004016102ee906113a2565b5f838152600160205260409020546001600160a01b031680610df057604051633dd1b30560e01b815260040160405180910390fd5b60405163a9059cbb60e01b81526001600160a01b0384811660048301526024820184905282919082169063a9059cbb906044016020604051808303815f875af1158015610e3f573d5f5f3e3d5ffd5b505050506040513d601f19601f82011682018060405250810190610e639190611197565b610e7f5760405162461bcd60e51b81526004016102ee906111b6565b5050505050565b6002546001600160a01b03163314610eb05760405162461bcd60e51b81526004016102ee906113a2565b5f818152600160205260409020546001600160a01b031680610ee557604051633dd1b30560e01b815260040160405180910390fd5b5f8281526001602052604080822080546001600160a01b0319169055516001600160a01b0383169184917fb3036f81a7a8205f3b94de16897df636d553839d92289fb7ec72dd2d541328429190a35050565b5f82815b8551811015610fcf575f868281518110610f5757610f57611279565b60200260200101519050808311610f99576040805160208101859052908101829052606001604051602081830303815290604052805190602001209250610fc6565b60408051602081018390529081018490526060016040516020818303038152906040528051906020012092505b50600101610f3b565b509091149392505050565b5f5f5f60608486031215610fec575f5ffd5b505081359360208301359350604090920135919050565b5f5f83601f840112611013575f5ffd5b50813567ffffffffffffffff81111561102a575f5ffd5b6020830191508360208260051b8501011115611044575f5ffd5b9250929050565b5f5f5f6040848603121561105d575f5ffd5b83359250602084013567ffffffffffffffff81111561107a575f5ffd5b61108686828701611003565b9497909650939450505050565b5f602082840312156110a3575f5ffd5b5035919050565b80356001600160a01b03811681146110c0575f5ffd5b919050565b5f5f604083850312156110d6575f5ffd5b823591506110e6602084016110aa565b90509250929050565b5f5f5f5f5f5f5f60c0888a031215611105575f5ffd5b873596506020880135955061111c604089016110aa565b9450606088013593506080880135925060a088013567ffffffffffffffff811115611145575f5ffd5b6111518a828b01611003565b989b979a50959850939692959293505050565b5f5f5f60608486031215611176575f5ffd5b83359250611186602085016110aa565b929592945050506040919091013590565b5f602082840312156111a7575f5ffd5b81518015158114610d8a575f5ffd5b602080825260159082015274151bdad95b881d1c985b9cd9995c8819985a5b1959605a1b604082015260600190565b634e487b7160e01b5f52604160045260245ffd5b604051601f8201601f1916810167ffffffffffffffff81118282101715611222576112226111e5565b604052919050565b5f604082840312801561123b575f5ffd5b506040805190810167ffffffffffffffff8111828210171561125f5761125f6111e5565b604052825181526020928301519281019290925250919050565b634e487b7160e01b5f52603260045260245ffd5b5f8235609e198336030181126112a1575f5ffd5b9190910192915050565b5f602082840312156112bb575f5ffd5b610d8a826110aa565b968752602087019590955260ff9390931660408601526001600160a01b03918216606086015216608084015260a083015260c082015260e00190565b5f5f8335601e19843603018112611315575f5ffd5b83018035915067ffffffffffffffff82111561132f575f5ffd5b6020019150600581901b3603821315611044575f5ffd5b5f60208284031215611356575f5ffd5b5051919050565b634e487b7160e01b5f52601160045260245ffd5b808201808211156113845761138461135d565b92915050565b5f6001820161139b5761139b61135d565b5060010190565b6020808252600e908201526d139bdd08185d5d1a1bdc9a5e995960921b604082015260600190565b5f602082840312156113da575f5ffd5b815167ffffffffffffffff8111156113f0575f5ffd5b8201601f81018413611400575f5ffd5b805167ffffffffffffffff81111561141a5761141a6111e5565b61142d601f8201601f19166020016111f9565b818152856020838501011115611441575f5ffd5b8160208401602083015e5f91810160200191909152949350505050565b602081525f82518060208401528060208501604085015e5f604082850101526040601f19601f8301168401019150509291505056fea2646970667358221220157e7ad53a36d8dd9775a7f2f3447a641d27e12ed572a617a1f34b7bea2fbf9564736f6c634300081c0033","linkReferences":{}},"methodIdentifiers":{"addSupportedToken(uint256,address)":"4702d81d","batchClaim(uint256,(uint256,address,uint256,uint256,bytes32[])[])":"3278c044","claim(uint256,uint256,address,uint256,uint256,bytes32[])":"86bfc719","claimed(uint256)":"dbe7e3bd","deposit(uint256,uint256,bytes32)":"045434c4","emergencyWithdraw(uint256,address,uint256)":"9f243c15","getSupportedToken(uint256)":"ea629d91","getTokenBalance(uint256)":"9105d748","isClaimed(uint256)":"9e34070f","isTokenSupported(uint256)":"345b69e5","owner()":"8da5cb5b","proofVerifier()":"7fa417b3","removeSupportedToken(uint256)":"b2b8d434","supportedTokens(uint256)":"c6255626"},"id":30}